{
  "_format": "hh-sol-artifact-1",
  "contractName": "WrappedEther",
  "sourceName": "contracts/testContracts/WrappedETH.sol",
  "abi": [
    {
      "inputs": [],
      "stateMutability": "nonpayable",
      "type": "constructor"
    },
    {
      "inputs": [],
      "name": "InvalidShortString",
      "type": "error"
    },
    {
      "inputs": [
        {
          "internalType": "string",
          "name": "str",
          "type": "string"
        }
      ],
      "name": "StringTooLong",
      "type": "error"
    },
    {
      "anonymous": false,
      "inputs": [
        {
          "indexed": true,
          "internalType": "address",
          "name": "owner",
          "type": "address"
        },
        {
          "indexed": true,
          "internalType": "address",
          "name": "spender",
          "type": "address"
        },
        {
          "indexed": false,
          "internalType": "uint256",
          "name": "value",
          "type": "uint256"
        }
      ],
      "name": "Approval",
      "type": "event"
    },
    {
      "anonymous": false,
      "inputs": [
        {
          "indexed": true,
          "internalType": "address",
          "name": "dst",
          "type": "address"
        },
        {
          "indexed": false,
          "internalType": "uint256",
          "name": "wad",
          "type": "uint256"
        }
      ],
      "name": "Deposit",
      "type": "event"
    },
    {
      "anonymous": false,
      "inputs": [],
      "name": "EIP712DomainChanged",
      "type": "event"
    },
    {
      "anonymous": false,
      "inputs": [
        {
          "indexed": true,
          "internalType": "address",
          "name": "from",
          "type": "address"
        },
        {
          "indexed": true,
          "internalType": "address",
          "name": "to",
          "type": "address"
        },
        {
          "indexed": false,
          "internalType": "uint256",
          "name": "value",
          "type": "uint256"
        }
      ],
      "name": "Transfer",
      "type": "event"
    },
    {
      "anonymous": false,
      "inputs": [
        {
          "indexed": true,
          "internalType": "address",
          "name": "src",
          "type": "address"
        },
        {
          "indexed": false,
          "internalType": "uint256",
          "name": "wad",
          "type": "uint256"
        }
      ],
      "name": "Withdrawal",
      "type": "event"
    },
    {
      "inputs": [],
      "name": "DOMAIN_SEPARATOR",
      "outputs": [
        {
          "internalType": "bytes32",
          "name": "",
          "type": "bytes32"
        }
      ],
      "stateMutability": "view",
      "type": "function"
    },
    {
      "inputs": [
        {
          "internalType": "address",
          "name": "owner",
          "type": "address"
        },
        {
          "internalType": "address",
          "name": "spender",
          "type": "address"
        }
      ],
      "name": "allowance",
      "outputs": [
        {
          "internalType": "uint256",
          "name": "",
          "type": "uint256"
        }
      ],
      "stateMutability": "view",
      "type": "function"
    },
    {
      "inputs": [
        {
          "internalType": "address",
          "name": "spender",
          "type": "address"
        },
        {
          "internalType": "uint256",
          "name": "amount",
          "type": "uint256"
        }
      ],
      "name": "approve",
      "outputs": [
        {
          "internalType": "bool",
          "name": "",
          "type": "bool"
        }
      ],
      "stateMutability": "nonpayable",
      "type": "function"
    },
    {
      "inputs": [
        {
          "internalType": "address",
          "name": "account",
          "type": "address"
        }
      ],
      "name": "balanceOf",
      "outputs": [
        {
          "internalType": "uint256",
          "name": "",
          "type": "uint256"
        }
      ],
      "stateMutability": "view",
      "type": "function"
    },
    {
      "inputs": [],
      "name": "decimals",
      "outputs": [
        {
          "internalType": "uint8",
          "name": "",
          "type": "uint8"
        }
      ],
      "stateMutability": "view",
      "type": "function"
    },
    {
      "inputs": [
        {
          "internalType": "address",
          "name": "spender",
          "type": "address"
        },
        {
          "internalType": "uint256",
          "name": "subtractedValue",
          "type": "uint256"
        }
      ],
      "name": "decreaseAllowance",
      "outputs": [
        {
          "internalType": "bool",
          "name": "",
          "type": "bool"
        }
      ],
      "stateMutability": "nonpayable",
      "type": "function"
    },
    {
      "inputs": [],
      "name": "deposit",
      "outputs": [],
      "stateMutability": "payable",
      "type": "function"
    },
    {
      "inputs": [],
      "name": "eip712Domain",
      "outputs": [
        {
          "internalType": "bytes1",
          "name": "fields",
          "type": "bytes1"
        },
        {
          "internalType": "string",
          "name": "name",
          "type": "string"
        },
        {
          "internalType": "string",
          "name": "version",
          "type": "string"
        },
        {
          "internalType": "uint256",
          "name": "chainId",
          "type": "uint256"
        },
        {
          "internalType": "address",
          "name": "verifyingContract",
          "type": "address"
        },
        {
          "internalType": "bytes32",
          "name": "salt",
          "type": "bytes32"
        },
        {
          "internalType": "uint256[]",
          "name": "extensions",
          "type": "uint256[]"
        }
      ],
      "stateMutability": "view",
      "type": "function"
    },
    {
      "inputs": [
        {
          "internalType": "address",
          "name": "spender",
          "type": "address"
        },
        {
          "internalType": "uint256",
          "name": "addedValue",
          "type": "uint256"
        }
      ],
      "name": "increaseAllowance",
      "outputs": [
        {
          "internalType": "bool",
          "name": "",
          "type": "bool"
        }
      ],
      "stateMutability": "nonpayable",
      "type": "function"
    },
    {
      "inputs": [],
      "name": "name",
      "outputs": [
        {
          "internalType": "string",
          "name": "",
          "type": "string"
        }
      ],
      "stateMutability": "view",
      "type": "function"
    },
    {
      "inputs": [
        {
          "internalType": "address",
          "name": "owner",
          "type": "address"
        }
      ],
      "name": "nonces",
      "outputs": [
        {
          "internalType": "uint256",
          "name": "",
          "type": "uint256"
        }
      ],
      "stateMutability": "view",
      "type": "function"
    },
    {
      "inputs": [
        {
          "internalType": "address",
          "name": "owner",
          "type": "address"
        },
        {
          "internalType": "address",
          "name": "spender",
          "type": "address"
        },
        {
          "internalType": "uint256",
          "name": "value",
          "type": "uint256"
        },
        {
          "internalType": "uint256",
          "name": "deadline",
          "type": "uint256"
        },
        {
          "internalType": "uint8",
          "name": "v",
          "type": "uint8"
        },
        {
          "internalType": "bytes32",
          "name": "r",
          "type": "bytes32"
        },
        {
          "internalType": "bytes32",
          "name": "s",
          "type": "bytes32"
        }
      ],
      "name": "permit",
      "outputs": [],
      "stateMutability": "nonpayable",
      "type": "function"
    },
    {
      "inputs": [],
      "name": "symbol",
      "outputs": [
        {
          "internalType": "string",
          "name": "",
          "type": "string"
        }
      ],
      "stateMutability": "view",
      "type": "function"
    },
    {
      "inputs": [],
      "name": "totalSupply",
      "outputs": [
        {
          "internalType": "uint256",
          "name": "",
          "type": "uint256"
        }
      ],
      "stateMutability": "view",
      "type": "function"
    },
    {
      "inputs": [
        {
          "internalType": "address",
          "name": "to",
          "type": "address"
        },
        {
          "internalType": "uint256",
          "name": "amount",
          "type": "uint256"
        }
      ],
      "name": "transfer",
      "outputs": [
        {
          "internalType": "bool",
          "name": "",
          "type": "bool"
        }
      ],
      "stateMutability": "nonpayable",
      "type": "function"
    },
    {
      "inputs": [
        {
          "internalType": "address",
          "name": "from",
          "type": "address"
        },
        {
          "internalType": "address",
          "name": "to",
          "type": "address"
        },
        {
          "internalType": "uint256",
          "name": "amount",
          "type": "uint256"
        }
      ],
      "name": "transferFrom",
      "outputs": [
        {
          "internalType": "bool",
          "name": "",
          "type": "bool"
        }
      ],
      "stateMutability": "nonpayable",
      "type": "function"
    },
    {
      "inputs": [
        {
          "internalType": "uint256",
          "name": "wad",
          "type": "uint256"
        }
      ],
      "name": "withdraw",
      "outputs": [],
      "stateMutability": "nonpayable",
      "type": "function"
    },
    {
      "stateMutability": "payable",
      "type": "receive"
    }
  ],
  "bytecode": "0x6101606040523480156200001257600080fd5b506040518060400160405280600d81526020017f5772617070656420457468657200000000000000000000000000000000000000815250806040518060400160405280600181526020017f31000000000000000000000000000000000000000000000000000000000000008152506040518060400160405280600d81526020017f57726170706564204574686572000000000000000000000000000000000000008152506040518060400160405280600481526020017f57455448000000000000000000000000000000000000000000000000000000008152508160039081620000fd91906200056f565b5080600490816200010f91906200056f565b50505062000128600583620001c960201b90919060201c565b610120818152505062000146600682620001c960201b90919060201c565b6101408181525050818051906020012060e08181525050808051906020012061010081815250504660a08181525050620001856200022160201b60201c565b608081815250503073ffffffffffffffffffffffffffffffffffffffff1660c08173ffffffffffffffffffffffffffffffffffffffff168152505050505062000879565b6000602083511015620001ef57620001e7836200027e60201b60201c565b90506200021b565b826200020183620002eb60201b60201c565b60000190816200021291906200056f565b5060ff60001b90505b92915050565b60007f8b73c3c69bb8fe3d512ecc4cf759cc79239f7b179b0ffacaa9a75d522b39400f60e05161010051463060405160200162000263959493929190620006c7565b60405160208183030381529060405280519060200120905090565b600080829050601f81511115620002ce57826040517f305a27a9000000000000000000000000000000000000000000000000000000008152600401620002c59190620007b3565b60405180910390fd5b805181620002dc9062000809565b60001c1760001b915050919050565b6000819050919050565b600081519050919050565b7f4e487b7100000000000000000000000000000000000000000000000000000000600052604160045260246000fd5b7f4e487b7100000000000000000000000000000000000000000000000000000000600052602260045260246000fd5b600060028204905060018216806200037757607f821691505b6020821081036200038d576200038c6200032f565b5b50919050565b60008190508160005260206000209050919050565b60006020601f8301049050919050565b600082821b905092915050565b600060088302620003f77fffffffffffffffffffffffffffffffffffffffffffffffffffffffffffffffff82620003b8565b620004038683620003b8565b95508019841693508086168417925050509392505050565b6000819050919050565b6000819050919050565b6000620004506200044a62000444846200041b565b62000425565b6200041b565b9050919050565b6000819050919050565b6200046c836200042f565b620004846200047b8262000457565b848454620003c5565b825550505050565b600090565b6200049b6200048c565b620004a881848462000461565b505050565b5b81811015620004d057620004c460008262000491565b600181019050620004ae565b5050565b601f8211156200051f57620004e98162000393565b620004f484620003a8565b8101602085101562000504578190505b6200051c6200051385620003a8565b830182620004ad565b50505b505050565b600082821c905092915050565b6000620005446000198460080262000524565b1980831691505092915050565b60006200055f838362000531565b9150826002028217905092915050565b6200057a82620002f5565b67ffffffffffffffff81111562000596576200059562000300565b5b620005a282546200035e565b620005af828285620004d4565b600060209050601f831160018114620005e75760008415620005d2578287015190505b620005de858262000551565b8655506200064e565b601f198416620005f78662000393565b60005b828110156200062157848901518255600182019150602085019450602081019050620005fa565b868310156200064157848901516200063d601f89168262000531565b8355505b6001600288020188555050505b505050505050565b6000819050919050565b6200066b8162000656565b82525050565b6200067c816200041b565b82525050565b600073ffffffffffffffffffffffffffffffffffffffff82169050919050565b6000620006af8262000682565b9050919050565b620006c181620006a2565b82525050565b600060a082019050620006de600083018862000660565b620006ed602083018762000660565b620006fc604083018662000660565b6200070b606083018562000671565b6200071a6080830184620006b6565b9695505050505050565b600082825260208201905092915050565b60005b838110156200075557808201518184015260208101905062000738565b60008484015250505050565b6000601f19601f8301169050919050565b60006200077f82620002f5565b6200078b818562000724565b93506200079d81856020860162000735565b620007a88162000761565b840191505092915050565b60006020820190508181036000830152620007cf818462000772565b905092915050565b600081519050919050565b6000819050602082019050919050565b600062000800825162000656565b80915050919050565b60006200081682620007d7565b826200082284620007e2565b90506200082f81620007f2565b9250602082101562000872576200086d7fffffffffffffffffffffffffffffffffffffffffffffffffffffffffffffffff83602003600802620003b8565b831692505b5050919050565b60805160a05160c05160e051610100516101205161014051612a22620008d460003960006107ec015260006107b8015260006115fa015260006115d901526000611396015260006113ec015260006114150152612a226000f3fe6080604052600436106101025760003560e01c806370a0823111610095578063a457c2d711610064578063a457c2d714610378578063a9059cbb146103b5578063d0e30db0146103f2578063d505accf146103fc578063dd62ed3e1461042557610111565b806370a08231146102a25780637ecebe00146102df57806384b0196e1461031c57806395d89b411461034d57610111565b80632e1a7d4d116100d15780632e1a7d4d146101e6578063313ce5671461020f5780633644e5151461023a578063395093511461026557610111565b806306fdde0314610116578063095ea7b31461014157806318160ddd1461017e57806323b872dd146101a957610111565b366101115761010f610462565b005b600080fd5b34801561012257600080fd5b5061012b6104c2565b6040516101389190611a3d565b60405180910390f35b34801561014d57600080fd5b5061016860048036038101906101639190611af8565b610554565b6040516101759190611b53565b60405180910390f35b34801561018a57600080fd5b50610193610577565b6040516101a09190611b7d565b60405180910390f35b3480156101b557600080fd5b506101d060048036038101906101cb9190611b98565b610581565b6040516101dd9190611b53565b60405180910390f35b3480156101f257600080fd5b5061020d60048036038101906102089190611beb565b6105b0565b005b34801561021b57600080fd5b506102246106be565b6040516102319190611c34565b60405180910390f35b34801561024657600080fd5b5061024f6106c7565b60405161025c9190611c68565b60405180910390f35b34801561027157600080fd5b5061028c60048036038101906102879190611af8565b6106d6565b6040516102999190611b53565b60405180910390f35b3480156102ae57600080fd5b506102c960048036038101906102c49190611c83565b61070d565b6040516102d69190611b7d565b60405180910390f35b3480156102eb57600080fd5b5061030660048036038101906103019190611c83565b610755565b6040516103139190611b7d565b60405180910390f35b34801561032857600080fd5b506103316107a5565b6040516103449796959493929190611db8565b60405180910390f35b34801561035957600080fd5b506103626108a7565b60405161036f9190611a3d565b60405180910390f35b34801561038457600080fd5b5061039f600480360381019061039a9190611af8565b610939565b6040516103ac9190611b53565b60405180910390f35b3480156103c157600080fd5b506103dc60048036038101906103d79190611af8565b6109b0565b6040516103e99190611b53565b60405180910390f35b6103fa610462565b005b34801561040857600080fd5b50610423600480360381019061041e9190611e94565b6109d3565b005b34801561043157600080fd5b5061044c60048036038101906104479190611f36565b610b15565b6040516104599190611b7d565b60405180910390f35b60003390506104718134610b9c565b8073ffffffffffffffffffffffffffffffffffffffff167fe1fffcc4923d04b559f4d29a8bfc6cda04eb5b0d3c460751c2402c5c5cc9109c346040516104b79190611b7d565b60405180910390a250565b6060600380546104d190611fa5565b80601f01602080910402602001604051908101604052809291908181526020018280546104fd90611fa5565b801561054a5780601f1061051f5761010080835404028352916020019161054a565b820191906000526020600020905b81548152906001019060200180831161052d57829003601f168201915b5050505050905090565b60008061055f610cf2565b905061056c818585610cfa565b600191505092915050565b6000600254905090565b60008061058c610cf2565b9050610599858285610ec3565b6105a4858585610f4f565b60019150509392505050565b60003390506105bf81836111c5565b60008173ffffffffffffffffffffffffffffffffffffffff16836040516105e590612007565b60006040518083038185875af1925050503d8060008114610622576040519150601f19603f3d011682016040523d82523d6000602084013e610627565b606091505b505090508061066b576040517f08c379a000000000000000000000000000000000000000000000000000000000815260040161066290612068565b60405180910390fd5b8173ffffffffffffffffffffffffffffffffffffffff167f7fcf532c15f0a6db0bd6d0e038bea71d30d808c7d98cb3bf7268a95bf5081b65846040516106b19190611b7d565b60405180910390a2505050565b60006012905090565b60006106d1611392565b905090565b6000806106e1610cf2565b90506107028185856106f38589610b15565b6106fd91906120b7565b610cfa565b600191505092915050565b60008060008373ffffffffffffffffffffffffffffffffffffffff1673ffffffffffffffffffffffffffffffffffffffff168152602001908152602001600020549050919050565b600061079e600760008473ffffffffffffffffffffffffffffffffffffffff1673ffffffffffffffffffffffffffffffffffffffff168152602001908152602001600020611449565b9050919050565b6000606080600080600060606107e560057f000000000000000000000000000000000000000000000000000000000000000061145790919063ffffffff16565b61081960067f000000000000000000000000000000000000000000000000000000000000000061145790919063ffffffff16565b46306000801b600067ffffffffffffffff81111561083a576108396120eb565b5b6040519080825280602002602001820160405280156108685781602001602082028036833780820191505090505b507f0f00000000000000000000000000000000000000000000000000000000000000959493929190965096509650965096509650965090919293949596565b6060600480546108b690611fa5565b80601f01602080910402602001604051908101604052809291908181526020018280546108e290611fa5565b801561092f5780601f106109045761010080835404028352916020019161092f565b820191906000526020600020905b81548152906001019060200180831161091257829003601f168201915b5050505050905090565b600080610944610cf2565b905060006109528286610b15565b905083811015610997576040517f08c379a000000000000000000000000000000000000000000000000000000000815260040161098e9061218c565b60405180910390fd5b6109a48286868403610cfa565b60019250505092915050565b6000806109bb610cf2565b90506109c8818585610f4f565b600191505092915050565b83421115610a16576040517f08c379a0000000000000000000000000000000000000000000000000000000008152600401610a0d906121f8565b60405180910390fd5b60007f6e71edae12b1b97f4d1f60370fef10105fa2faae0126114a169c64845d6126c9888888610a458c611507565b89604051602001610a5b96959493929190612218565b6040516020818303038152906040528051906020012090506000610a7e82611565565b90506000610a8e8287878761157f565b90508973ffffffffffffffffffffffffffffffffffffffff168173ffffffffffffffffffffffffffffffffffffffff1614610afe576040517f08c379a0000000000000000000000000000000000000000000000000000000008152600401610af5906122c5565b60405180910390fd5b610b098a8a8a610cfa565b50505050505050505050565b6000600160008473ffffffffffffffffffffffffffffffffffffffff1673ffffffffffffffffffffffffffffffffffffffff16815260200190815260200160002060008373ffffffffffffffffffffffffffffffffffffffff1673ffffffffffffffffffffffffffffffffffffffff16815260200190815260200160002054905092915050565b600073ffffffffffffffffffffffffffffffffffffffff168273ffffffffffffffffffffffffffffffffffffffff1603610c0b576040517f08c379a0000000000000000000000000000000000000000000000000000000008152600401610c0290612331565b60405180910390fd5b610c17600083836115aa565b8060026000828254610c2991906120b7565b92505081905550806000808473ffffffffffffffffffffffffffffffffffffffff1673ffffffffffffffffffffffffffffffffffffffff168152602001908152602001600020600082825401925050819055508173ffffffffffffffffffffffffffffffffffffffff16600073ffffffffffffffffffffffffffffffffffffffff167fddf252ad1be2c89b69c2b068fc378daa952ba7f163c4a11628f55a4df523b3ef83604051610cda9190611b7d565b60405180910390a3610cee600083836115af565b5050565b600033905090565b600073ffffffffffffffffffffffffffffffffffffffff168373ffffffffffffffffffffffffffffffffffffffff1603610d69576040517f08c379a0000000000000000000000000000000000000000000000000000000008152600401610d60906123c3565b60405180910390fd5b600073ffffffffffffffffffffffffffffffffffffffff168273ffffffffffffffffffffffffffffffffffffffff1603610dd8576040517f08c379a0000000000000000000000000000000000000000000000000000000008152600401610dcf90612455565b60405180910390fd5b80600160008573ffffffffffffffffffffffffffffffffffffffff1673ffffffffffffffffffffffffffffffffffffffff16815260200190815260200160002060008473ffffffffffffffffffffffffffffffffffffffff1673ffffffffffffffffffffffffffffffffffffffff168152602001908152602001600020819055508173ffffffffffffffffffffffffffffffffffffffff168373ffffffffffffffffffffffffffffffffffffffff167f8c5be1e5ebec7d5bd14f71427d1e84f3dd0314c0f7b2291e5b200ac8c7c3b92583604051610eb69190611b7d565b60405180910390a3505050565b6000610ecf8484610b15565b90507fffffffffffffffffffffffffffffffffffffffffffffffffffffffffffffffff8114610f495781811015610f3b576040517f08c379a0000000000000000000000000000000000000000000000000000000008152600401610f32906124c1565b60405180910390fd5b610f488484848403610cfa565b5b50505050565b600073ffffffffffffffffffffffffffffffffffffffff168373ffffffffffffffffffffffffffffffffffffffff1603610fbe576040517f08c379a0000000000000000000000000000000000000000000000000000000008152600401610fb590612553565b60405180910390fd5b600073ffffffffffffffffffffffffffffffffffffffff168273ffffffffffffffffffffffffffffffffffffffff160361102d576040517f08c379a0000000000000000000000000000000000000000000000000000000008152600401611024906125e5565b60405180910390fd5b6110388383836115aa565b60008060008573ffffffffffffffffffffffffffffffffffffffff1673ffffffffffffffffffffffffffffffffffffffff168152602001908152602001600020549050818110156110be576040517f08c379a00000000000000000000000000000000000000000000000000000000081526004016110b590612677565b60405180910390fd5b8181036000808673ffffffffffffffffffffffffffffffffffffffff1673ffffffffffffffffffffffffffffffffffffffff16815260200190815260200160002081905550816000808573ffffffffffffffffffffffffffffffffffffffff1673ffffffffffffffffffffffffffffffffffffffff168152602001908152602001600020600082825401925050819055508273ffffffffffffffffffffffffffffffffffffffff168473ffffffffffffffffffffffffffffffffffffffff167fddf252ad1be2c89b69c2b068fc378daa952ba7f163c4a11628f55a4df523b3ef846040516111ac9190611b7d565b60405180910390a36111bf8484846115af565b50505050565b600073ffffffffffffffffffffffffffffffffffffffff168273ffffffffffffffffffffffffffffffffffffffff1603611234576040517f08c379a000000000000000000000000000000000000000000000000000000000815260040161122b90612709565b60405180910390fd5b611240826000836115aa565b60008060008473ffffffffffffffffffffffffffffffffffffffff1673ffffffffffffffffffffffffffffffffffffffff168152602001908152602001600020549050818110156112c6576040517f08c379a00000000000000000000000000000000000000000000000000000000081526004016112bd9061279b565b60405180910390fd5b8181036000808573ffffffffffffffffffffffffffffffffffffffff1673ffffffffffffffffffffffffffffffffffffffff1681526020019081526020016000208190555081600260008282540392505081905550600073ffffffffffffffffffffffffffffffffffffffff168373ffffffffffffffffffffffffffffffffffffffff167fddf252ad1be2c89b69c2b068fc378daa952ba7f163c4a11628f55a4df523b3ef846040516113799190611b7d565b60405180910390a361138d836000846115af565b505050565b60007f000000000000000000000000000000000000000000000000000000000000000073ffffffffffffffffffffffffffffffffffffffff163073ffffffffffffffffffffffffffffffffffffffff1614801561140e57507f000000000000000000000000000000000000000000000000000000000000000046145b1561143b577f00000000000000000000000000000000000000000000000000000000000000009050611446565b6114436115b4565b90505b90565b600081600001549050919050565b606060ff60001b83146114745761146d8361164a565b9050611501565b81805461148090611fa5565b80601f01602080910402602001604051908101604052809291908181526020018280546114ac90611fa5565b80156114f95780601f106114ce576101008083540402835291602001916114f9565b820191906000526020600020905b8154815290600101906020018083116114dc57829003601f168201915b505050505090505b92915050565b600080600760008473ffffffffffffffffffffffffffffffffffffffff1673ffffffffffffffffffffffffffffffffffffffff168152602001908152602001600020905061155481611449565b915061155f816116be565b50919050565b6000611578611572611392565b836116d4565b9050919050565b600080600061159087878787611715565b9150915061159d816117f7565b8192505050949350505050565b505050565b505050565b60007f8b73c3c69bb8fe3d512ecc4cf759cc79239f7b179b0ffacaa9a75d522b39400f7f00000000000000000000000000000000000000000000000000000000000000007f0000000000000000000000000000000000000000000000000000000000000000463060405160200161162f9594939291906127bb565b60405160208183030381529060405280519060200120905090565b606060006116578361195d565b90506000602067ffffffffffffffff811115611676576116756120eb565b5b6040519080825280601f01601f1916602001820160405280156116a85781602001600182028036833780820191505090505b5090508181528360208201528092505050919050565b6001816000016000828254019250508190555050565b60006040517f190100000000000000000000000000000000000000000000000000000000000081528360028201528260228201526042812091505092915050565b6000807f7fffffffffffffffffffffffffffffff5d576e7357a4501ddfe92f46681b20a08360001c11156117505760006003915091506117ee565b600060018787878760405160008152602001604052604051611775949392919061280e565b6020604051602081039080840390855afa158015611797573d6000803e3d6000fd5b505050602060405103519050600073ffffffffffffffffffffffffffffffffffffffff168173ffffffffffffffffffffffffffffffffffffffff16036117e5576000600192509250506117ee565b80600092509250505b94509492505050565b6000600481111561180b5761180a612853565b5b81600481111561181e5761181d612853565b5b031561195a576001600481111561183857611837612853565b5b81600481111561184b5761184a612853565b5b0361188b576040517f08c379a0000000000000000000000000000000000000000000000000000000008152600401611882906128ce565b60405180910390fd5b6002600481111561189f5761189e612853565b5b8160048111156118b2576118b1612853565b5b036118f2576040517f08c379a00000000000000000000000000000000000000000000000000000000081526004016118e99061293a565b60405180910390fd5b6003600481111561190657611905612853565b5b81600481111561191957611918612853565b5b03611959576040517f08c379a0000000000000000000000000000000000000000000000000000000008152600401611950906129cc565b60405180910390fd5b5b50565b60008060ff8360001c169050601f8111156119a4576040517fb3512b0c00000000000000000000000000000000000000000000000000000000815260040160405180910390fd5b80915050919050565b600081519050919050565b600082825260208201905092915050565b60005b838110156119e75780820151818401526020810190506119cc565b60008484015250505050565b6000601f19601f8301169050919050565b6000611a0f826119ad565b611a1981856119b8565b9350611a298185602086016119c9565b611a32816119f3565b840191505092915050565b60006020820190508181036000830152611a578184611a04565b905092915050565b600080fd5b600073ffffffffffffffffffffffffffffffffffffffff82169050919050565b6000611a8f82611a64565b9050919050565b611a9f81611a84565b8114611aaa57600080fd5b50565b600081359050611abc81611a96565b92915050565b6000819050919050565b611ad581611ac2565b8114611ae057600080fd5b50565b600081359050611af281611acc565b92915050565b60008060408385031215611b0f57611b0e611a5f565b5b6000611b1d85828601611aad565b9250506020611b2e85828601611ae3565b9150509250929050565b60008115159050919050565b611b4d81611b38565b82525050565b6000602082019050611b686000830184611b44565b92915050565b611b7781611ac2565b82525050565b6000602082019050611b926000830184611b6e565b92915050565b600080600060608486031215611bb157611bb0611a5f565b5b6000611bbf86828701611aad565b9350506020611bd086828701611aad565b9250506040611be186828701611ae3565b9150509250925092565b600060208284031215611c0157611c00611a5f565b5b6000611c0f84828501611ae3565b91505092915050565b600060ff82169050919050565b611c2e81611c18565b82525050565b6000602082019050611c496000830184611c25565b92915050565b6000819050919050565b611c6281611c4f565b82525050565b6000602082019050611c7d6000830184611c59565b92915050565b600060208284031215611c9957611c98611a5f565b5b6000611ca784828501611aad565b91505092915050565b60007fff0000000000000000000000000000000000000000000000000000000000000082169050919050565b611ce581611cb0565b82525050565b611cf481611a84565b82525050565b600081519050919050565b600082825260208201905092915050565b6000819050602082019050919050565b611d2f81611ac2565b82525050565b6000611d418383611d26565b60208301905092915050565b6000602082019050919050565b6000611d6582611cfa565b611d6f8185611d05565b9350611d7a83611d16565b8060005b83811015611dab578151611d928882611d35565b9750611d9d83611d4d565b925050600181019050611d7e565b5085935050505092915050565b600060e082019050611dcd600083018a611cdc565b8181036020830152611ddf8189611a04565b90508181036040830152611df38188611a04565b9050611e026060830187611b6e565b611e0f6080830186611ceb565b611e1c60a0830185611c59565b81810360c0830152611e2e8184611d5a565b905098975050505050505050565b611e4581611c18565b8114611e5057600080fd5b50565b600081359050611e6281611e3c565b92915050565b611e7181611c4f565b8114611e7c57600080fd5b50565b600081359050611e8e81611e68565b92915050565b600080600080600080600060e0888a031215611eb357611eb2611a5f565b5b6000611ec18a828b01611aad565b9750506020611ed28a828b01611aad565b9650506040611ee38a828b01611ae3565b9550506060611ef48a828b01611ae3565b9450506080611f058a828b01611e53565b93505060a0611f168a828b01611e7f565b92505060c0611f278a828b01611e7f565b91505092959891949750929550565b60008060408385031215611f4d57611f4c611a5f565b5b6000611f5b85828601611aad565b9250506020611f6c85828601611aad565b9150509250929050565b7f4e487b7100000000000000000000000000000000000000000000000000000000600052602260045260246000fd5b60006002820490506001821680611fbd57607f821691505b602082108103611fd057611fcf611f76565b5b50919050565b600081905092915050565b50565b6000611ff1600083611fd6565b9150611ffc82611fe1565b600082019050919050565b600061201282611fe4565b9150819050919050565b7f776974686472617720455448206661696c656400000000000000000000000000600082015250565b60006120526013836119b8565b915061205d8261201c565b602082019050919050565b6000602082019050818103600083015261208181612045565b9050919050565b7f4e487b7100000000000000000000000000000000000000000000000000000000600052601160045260246000fd5b60006120c282611ac2565b91506120cd83611ac2565b92508282019050808211156120e5576120e4612088565b5b92915050565b7f4e487b7100000000000000000000000000000000000000000000000000000000600052604160045260246000fd5b7f45524332303a2064656372656173656420616c6c6f77616e63652062656c6f7760008201527f207a65726f000000000000000000000000000000000000000000000000000000602082015250565b60006121766025836119b8565b91506121818261211a565b604082019050919050565b600060208201905081810360008301526121a581612169565b9050919050565b7f45524332305065726d69743a206578706972656420646561646c696e65000000600082015250565b60006121e2601d836119b8565b91506121ed826121ac565b602082019050919050565b60006020820190508181036000830152612211816121d5565b9050919050565b600060c08201905061222d6000830189611c59565b61223a6020830188611ceb565b6122476040830187611ceb565b6122546060830186611b6e565b6122616080830185611b6e565b61226e60a0830184611b6e565b979650505050505050565b7f45524332305065726d69743a20696e76616c6964207369676e61747572650000600082015250565b60006122af601e836119b8565b91506122ba82612279565b602082019050919050565b600060208201905081810360008301526122de816122a2565b9050919050565b7f45524332303a206d696e7420746f20746865207a65726f206164647265737300600082015250565b600061231b601f836119b8565b9150612326826122e5565b602082019050919050565b6000602082019050818103600083015261234a8161230e565b9050919050565b7f45524332303a20617070726f76652066726f6d20746865207a65726f2061646460008201527f7265737300000000000000000000000000000000000000000000000000000000602082015250565b60006123ad6024836119b8565b91506123b882612351565b604082019050919050565b600060208201905081810360008301526123dc816123a0565b9050919050565b7f45524332303a20617070726f766520746f20746865207a65726f20616464726560008201527f7373000000000000000000000000000000000000000000000000000000000000602082015250565b600061243f6022836119b8565b915061244a826123e3565b604082019050919050565b6000602082019050818103600083015261246e81612432565b9050919050565b7f45524332303a20696e73756666696369656e7420616c6c6f77616e6365000000600082015250565b60006124ab601d836119b8565b91506124b682612475565b602082019050919050565b600060208201905081810360008301526124da8161249e565b9050919050565b7f45524332303a207472616e736665722066726f6d20746865207a65726f20616460008201527f6472657373000000000000000000000000000000000000000000000000000000602082015250565b600061253d6025836119b8565b9150612548826124e1565b604082019050919050565b6000602082019050818103600083015261256c81612530565b9050919050565b7f45524332303a207472616e7366657220746f20746865207a65726f206164647260008201527f6573730000000000000000000000000000000000000000000000000000000000602082015250565b60006125cf6023836119b8565b91506125da82612573565b604082019050919050565b600060208201905081810360008301526125fe816125c2565b9050919050565b7f45524332303a207472616e7366657220616d6f756e742065786365656473206260008201527f616c616e63650000000000000000000000000000000000000000000000000000602082015250565b60006126616026836119b8565b915061266c82612605565b604082019050919050565b6000602082019050818103600083015261269081612654565b9050919050565b7f45524332303a206275726e2066726f6d20746865207a65726f2061646472657360008201527f7300000000000000000000000000000000000000000000000000000000000000602082015250565b60006126f36021836119b8565b91506126fe82612697565b604082019050919050565b60006020820190508181036000830152612722816126e6565b9050919050565b7f45524332303a206275726e20616d6f756e7420657863656564732062616c616e60008201527f6365000000000000000000000000000000000000000000000000000000000000602082015250565b60006127856022836119b8565b915061279082612729565b604082019050919050565b600060208201905081810360008301526127b481612778565b9050919050565b600060a0820190506127d06000830188611c59565b6127dd6020830187611c59565b6127ea6040830186611c59565b6127f76060830185611b6e565b6128046080830184611ceb565b9695505050505050565b60006080820190506128236000830187611c59565b6128306020830186611c25565b61283d6040830185611c59565b61284a6060830184611c59565b95945050505050565b7f4e487b7100000000000000000000000000000000000000000000000000000000600052602160045260246000fd5b7f45434453413a20696e76616c6964207369676e61747572650000000000000000600082015250565b60006128b86018836119b8565b91506128c382612882565b602082019050919050565b600060208201905081810360008301526128e7816128ab565b9050919050565b7f45434453413a20696e76616c6964207369676e6174757265206c656e67746800600082015250565b6000612924601f836119b8565b915061292f826128ee565b602082019050919050565b6000602082019050818103600083015261295381612917565b9050919050565b7f45434453413a20696e76616c6964207369676e6174757265202773272076616c60008201527f7565000000000000000000000000000000000000000000000000000000000000602082015250565b60006129b66022836119b8565b91506129c18261295a565b604082019050919050565b600060208201905081810360008301526129e5816129a9565b905091905056fea2646970667358221220a721abb6b27ad4ae74ba211f493c1f0733d52340916b299615c55e9a10b4e07d64736f6c63430008140033",
  "linkReferences": {},
  "deployedLinkReferences": {}
}