{
  "_format": "hh-sol-artifact-1",
  "contractName": "Consumer",
  "sourceName": "contracts/testContracts/ContractConsumer.sol",
  "abi": [
    {
      "inputs": [
        {
          "internalType": "address",
          "name": "_coinflip",
          "type": "address"
        }
      ],
      "stateMutability": "nonpayable",
      "type": "constructor"
    },
    {
      "inputs": [],
      "name": "InvalidDepositor",
      "type": "error"
    },
    {
      "inputs": [],
      "name": "allowedDepositor",
      "outputs": [
        {
          "internalType": "address",
          "name": "",
          "type": "address"
        }
      ],
      "stateMutability": "view",
      "type": "function"
    },
    {
      "inputs": [],
      "name": "coinflip",
      "outputs": [
        {
          "internalType": "contract ICoinFlip",
          "name": "",
          "type": "address"
        }
      ],
      "stateMutability": "view",
      "type": "function"
    },
    {
      "inputs": [],
      "name": "isRefund",
      "outputs": [
        {
          "internalType": "bool",
          "name": "",
          "type": "bool"
        }
      ],
      "stateMutability": "view",
      "type": "function"
    },
    {
      "inputs": [
        {
          "internalType": "uint256",
          "name": "wager",
          "type": "uint256"
        },
        {
          "internalType": "address",
          "name": "tokenAddress",
          "type": "address"
        },
        {
          "internalType": "bool",
          "name": "isHeads",
          "type": "bool"
        },
        {
          "internalType": "uint32",
          "name": "numBets",
          "type": "uint32"
        },
        {
          "internalType": "uint256",
          "name": "stopGain",
          "type": "uint256"
        },
        {
          "internalType": "uint256",
          "name": "stopLoss",
          "type": "uint256"
        }
      ],
      "name": "placeBet",
      "outputs": [],
      "stateMutability": "payable",
      "type": "function"
    },
    {
      "stateMutability": "payable",
      "type": "receive"
    }
  ],
  "bytecode": "0x608060405260018060146101000a81548160ff02191690831515021790555034801561002a57600080fd5b506040516106dd3803806106dd833981810160405281019061004c9190610136565b806000806101000a81548173ffffffffffffffffffffffffffffffffffffffff021916908373ffffffffffffffffffffffffffffffffffffffff16021790555033600160006101000a81548173ffffffffffffffffffffffffffffffffffffffff021916908373ffffffffffffffffffffffffffffffffffffffff16021790555050610163565b600080fd5b600073ffffffffffffffffffffffffffffffffffffffff82169050919050565b6000610103826100d8565b9050919050565b610113816100f8565b811461011e57600080fd5b50565b6000815190506101308161010a565b92915050565b60006020828403121561014c5761014b6100d3565b5b600061015a84828501610121565b91505092915050565b61056b806101726000396000f3fe6080604052600436106100435760003560e01c80631af268fa146100b6578063411ec80f146100e1578063bd3623cc1461010c578063d921eb7814610128576100b1565b366100b157600160149054906101000a900460ff161561007d576000600160146101000a81548160ff0219169083151502179055506100af565b6040517f9be803a200000000000000000000000000000000000000000000000000000000815260040160405180910390fd5b005b600080fd5b3480156100c257600080fd5b506100cb610153565b6040516100d891906102cd565b60405180910390f35b3480156100ed57600080fd5b506100f6610177565b6040516101039190610309565b60405180910390f35b610126600480360381019061012191906103ff565b61019d565b005b34801561013457600080fd5b5061013d61023b565b60405161014a919061049b565b60405180910390f35b60008054906101000a900473ffffffffffffffffffffffffffffffffffffffff1681565b600160009054906101000a900473ffffffffffffffffffffffffffffffffffffffff1681565b60008054906101000a900473ffffffffffffffffffffffffffffffffffffffff1673ffffffffffffffffffffffffffffffffffffffff16636d974773348888888888886040518863ffffffff1660e01b8152600401610201969594939291906104d4565b6000604051808303818588803b15801561021a57600080fd5b505af115801561022e573d6000803e3d6000fd5b5050505050505050505050565b600160149054906101000a900460ff1681565b600073ffffffffffffffffffffffffffffffffffffffff82169050919050565b6000819050919050565b600061029361028e6102898461024e565b61026e565b61024e565b9050919050565b60006102a582610278565b9050919050565b60006102b78261029a565b9050919050565b6102c7816102ac565b82525050565b60006020820190506102e260008301846102be565b92915050565b60006102f38261024e565b9050919050565b610303816102e8565b82525050565b600060208201905061031e60008301846102fa565b92915050565b600080fd5b6000819050919050565b61033c81610329565b811461034757600080fd5b50565b60008135905061035981610333565b92915050565b610368816102e8565b811461037357600080fd5b50565b6000813590506103858161035f565b92915050565b60008115159050919050565b6103a08161038b565b81146103ab57600080fd5b50565b6000813590506103bd81610397565b92915050565b600063ffffffff82169050919050565b6103dc816103c3565b81146103e757600080fd5b50565b6000813590506103f9816103d3565b92915050565b60008060008060008060c0878903121561041c5761041b610324565b5b600061042a89828a0161034a565b965050602061043b89828a01610376565b955050604061044c89828a016103ae565b945050606061045d89828a016103ea565b935050608061046e89828a0161034a565b92505060a061047f89828a0161034a565b9150509295509295509295565b6104958161038b565b82525050565b60006020820190506104b0600083018461048c565b92915050565b6104bf81610329565b82525050565b6104ce816103c3565b82525050565b600060c0820190506104e960008301896104b6565b6104f660208301886102fa565b610503604083018761048c565b61051060608301866104c5565b61051d60808301856104b6565b61052a60a08301846104b6565b97965050505050505056fea2646970667358221220f446fd41441be57c72d18a7d0cf48a71f8419aec267900f4593712f7d0b9ef4064736f6c63430008140033",
  "linkReferences": {},
  "deployedLinkReferences": {}
}