{
  "_format": "hh-sol-artifact-1",
  "contractName": "Common",
  "sourceName": "contracts/Common.sol",
  "abi": [
    {
      "inputs": [
        {
          "internalType": "uint64",
          "name": "subscriptionId",
          "type": "uint64"
        },
        {
          "internalType": "address",
          "name": "link_eth_feed",
          "type": "address"
        },
        {
          "internalType": "address",
          "name": "_vrf",
          "type": "address"
        },
        {
          "internalType": "bytes32",
          "name": "_keyHash",
          "type": "bytes32"
        },
        {
          "internalType": "address",
          "name": "_wrappedToken",
          "type": "address"
        }
      ],
      "stateMutability": "nonpayable",
      "type": "constructor"
    },
    {
      "inputs": [],
      "name": "InvalidToken",
      "type": "error"
    },
    {
      "inputs": [
        {
          "internalType": "uint256",
          "name": "required",
          "type": "uint256"
        },
        {
          "internalType": "uint256",
          "name": "sent",
          "type": "uint256"
        }
      ],
      "name": "InvalidValue",
      "type": "error"
    },
    {
      "inputs": [
        {
          "internalType": "address",
          "name": "want",
          "type": "address"
        },
        {
          "internalType": "address",
          "name": "have",
          "type": "address"
        }
      ],
      "name": "NotOwner",
      "type": "error"
    },
    {
      "inputs": [],
      "name": "RefundFailed",
      "type": "error"
    },
    {
      "inputs": [],
      "name": "TransferFailed",
      "type": "error"
    },
    {
      "inputs": [],
      "name": "ZeroWager",
      "type": "error"
    },
    {
      "inputs": [],
      "name": "COORDINATOR",
      "outputs": [
        {
          "internalType": "contract IVRFCoordinatorV2",
          "name": "",
          "type": "address"
        }
      ],
      "stateMutability": "view",
      "type": "function"
    },
    {
      "inputs": [],
      "name": "LINK_ETH_FEED",
      "outputs": [
        {
          "internalType": "contract AggregatorV3Interface",
          "name": "",
          "type": "address"
        }
      ],
      "stateMutability": "view",
      "type": "function"
    },
    {
      "inputs": [],
      "name": "VRFFees",
      "outputs": [
        {
          "internalType": "uint256",
          "name": "",
          "type": "uint256"
        }
      ],
      "stateMutability": "view",
      "type": "function"
    },
    {
      "inputs": [
        {
          "internalType": "uint256",
          "name": "gasAmount",
          "type": "uint256"
        }
      ],
      "name": "getVRFFee",
      "outputs": [
        {
          "internalType": "uint256",
          "name": "fee",
          "type": "uint256"
        }
      ],
      "stateMutability": "view",
      "type": "function"
    },
    {
      "inputs": [],
      "name": "owner",
      "outputs": [
        {
          "internalType": "address",
          "name": "",
          "type": "address"
        }
      ],
      "stateMutability": "view",
      "type": "function"
    },
    {
      "inputs": [],
      "name": "s_subscriptionId",
      "outputs": [
        {
          "internalType": "uint64",
          "name": "",
          "type": "uint64"
        }
      ],
      "stateMutability": "view",
      "type": "function"
    },
    {
      "inputs": [
        {
          "internalType": "address",
          "name": "to",
          "type": "address"
        }
      ],
      "name": "transferFees",
      "outputs": [],
      "stateMutability": "nonpayable",
      "type": "function"
    },
    {
      "inputs": [],
      "name": "wrappedToken",
      "outputs": [
        {
          "internalType": "address",
          "name": "",
          "type": "address"
        }
      ],
      "stateMutability": "view",
      "type": "function"
    }
  ],
  "bytecode": "0x60e06040523480156200001157600080fd5b5060405162000eef38038062000eef83398181016040528101906200003791906200024f565b60016000819055508273ffffffffffffffffffffffffffffffffffffffff1660a08173ffffffffffffffffffffffffffffffffffffffff16815250508373ffffffffffffffffffffffffffffffffffffffff1660808173ffffffffffffffffffffffffffffffffffffffff168152505084600260006101000a81548167ffffffffffffffff021916908367ffffffffffffffff16021790555033600260086101000a81548173ffffffffffffffffffffffffffffffffffffffff021916908373ffffffffffffffffffffffffffffffffffffffff1602179055508160c0818152505080600360006101000a81548173ffffffffffffffffffffffffffffffffffffffff021916908373ffffffffffffffffffffffffffffffffffffffff1602179055505050505050620002d7565b600080fd5b600067ffffffffffffffff82169050919050565b62000189816200016a565b81146200019557600080fd5b50565b600081519050620001a9816200017e565b92915050565b600073ffffffffffffffffffffffffffffffffffffffff82169050919050565b6000620001dc82620001af565b9050919050565b620001ee81620001cf565b8114620001fa57600080fd5b50565b6000815190506200020e81620001e3565b92915050565b6000819050919050565b620002298162000214565b81146200023557600080fd5b50565b60008151905062000249816200021e565b92915050565b600080600080600060a086880312156200026e576200026d62000165565b5b60006200027e8882890162000198565b95505060206200029188828901620001fd565b9450506040620002a488828901620001fd565b9350506060620002b78882890162000238565b9250506080620002ca88828901620001fd565b9150509295509295909350565b60805160a05160c051610bdd62000312600039600050506000818161018f01526103880152600081816102f101526104e00152610bdd6000f3fe608060405234801561001057600080fd5b50600436106100885760003560e01c80638d7c16d21161005b5780638d7c16d2146101155780638da5cb5b14610133578063996c6cc314610151578063ad1783611461016f57610088565b80633b2bcbf11461008d57806363dc4ef5146100ab5780638ac00021146100c75780638bd16114146100e5575b600080fd5b61009561018d565b6040516100a291906105da565b60405180910390f35b6100c560048036038101906100c09190610638565b6101b1565b005b6100cf6102d2565b6040516100dc9190610688565b60405180910390f35b6100ff60048036038101906100fa91906106d9565b6102ec565b60405161010c9190610715565b60405180910390f35b61011d61048c565b60405161012a9190610715565b60405180910390f35b61013b610492565b604051610148919061073f565b60405180910390f35b6101596104b8565b604051610166919061073f565b60405180910390f35b6101776104de565b604051610184919061077b565b60405180910390f35b7f000000000000000000000000000000000000000000000000000000000000000081565b6101b9610502565b600260089054906101000a900473ffffffffffffffffffffffffffffffffffffffff1673ffffffffffffffffffffffffffffffffffffffff163373ffffffffffffffffffffffffffffffffffffffff161461021357600080fd5b60006001549050600060018190555060008273ffffffffffffffffffffffffffffffffffffffff1682604051610248906107c7565b60006040518083038185875af1925050503d8060008114610285576040519150601f19603f3d011682016040523d82523d6000602084013e61028a565b606091505b50509050806102c5576040517f90b8ec1800000000000000000000000000000000000000000000000000000000815260040160405180910390fd5b50506102cf610551565b50565b600260009054906101000a900467ffffffffffffffff1681565b6000807f000000000000000000000000000000000000000000000000000000000000000073ffffffffffffffffffffffffffffffffffffffff1663feaf968c6040518163ffffffff1660e01b815260040160a060405180830381865afa15801561035a573d6000803e3d6000fd5b505050506040513d601f19601f8201168201806040525081019061037e9190610869565b50505091505060007f000000000000000000000000000000000000000000000000000000000000000073ffffffffffffffffffffffffffffffffffffffff16635fbbc0d26040518163ffffffff1660e01b815260040161012060405180830381865afa1580156103f2573d6000803e3d6000fd5b505050506040513d601f19601f82011682018060405250810190610416919061095b565b50505050505050509050670de0b6b3a7640000828263ffffffff1664e8d4a510006104419190610a54565b61044b9190610a54565b6104559190610ac5565b600a8560123a6104659190610a54565b61046f9190610a54565b6104799190610ac5565b6104839190610af6565b92505050919050565b60015481565b600260089054906101000a900473ffffffffffffffffffffffffffffffffffffffff1681565b600360009054906101000a900473ffffffffffffffffffffffffffffffffffffffff1681565b7f000000000000000000000000000000000000000000000000000000000000000081565b600260005403610547576040517f08c379a000000000000000000000000000000000000000000000000000000000815260040161053e90610b87565b60405180910390fd5b6002600081905550565b6001600081905550565b600073ffffffffffffffffffffffffffffffffffffffff82169050919050565b6000819050919050565b60006105a061059b6105968461055b565b61057b565b61055b565b9050919050565b60006105b282610585565b9050919050565b60006105c4826105a7565b9050919050565b6105d4816105b9565b82525050565b60006020820190506105ef60008301846105cb565b92915050565b600080fd5b60006106058261055b565b9050919050565b610615816105fa565b811461062057600080fd5b50565b6000813590506106328161060c565b92915050565b60006020828403121561064e5761064d6105f5565b5b600061065c84828501610623565b91505092915050565b600067ffffffffffffffff82169050919050565b61068281610665565b82525050565b600060208201905061069d6000830184610679565b92915050565b6000819050919050565b6106b6816106a3565b81146106c157600080fd5b50565b6000813590506106d3816106ad565b92915050565b6000602082840312156106ef576106ee6105f5565b5b60006106fd848285016106c4565b91505092915050565b61070f816106a3565b82525050565b600060208201905061072a6000830184610706565b92915050565b610739816105fa565b82525050565b60006020820190506107546000830184610730565b92915050565b6000610765826105a7565b9050919050565b6107758161075a565b82525050565b6000602082019050610790600083018461076c565b92915050565b600081905092915050565b50565b60006107b1600083610796565b91506107bc826107a1565b600082019050919050565b60006107d2826107a4565b9150819050919050565b600069ffffffffffffffffffff82169050919050565b6107fb816107dc565b811461080657600080fd5b50565b600081519050610818816107f2565b92915050565b6000819050919050565b6108318161081e565b811461083c57600080fd5b50565b60008151905061084e81610828565b92915050565b600081519050610863816106ad565b92915050565b600080600080600060a08688031215610885576108846105f5565b5b600061089388828901610809565b95505060206108a48882890161083f565b94505060406108b588828901610854565b93505060606108c688828901610854565b92505060806108d788828901610809565b9150509295509295909350565b600063ffffffff82169050919050565b6108fd816108e4565b811461090857600080fd5b50565b60008151905061091a816108f4565b92915050565b600062ffffff82169050919050565b61093881610920565b811461094357600080fd5b50565b6000815190506109558161092f565b92915050565b60008060008060008060008060006101208a8c03121561097e5761097d6105f5565b5b600061098c8c828d0161090b565b995050602061099d8c828d0161090b565b98505060406109ae8c828d0161090b565b97505060606109bf8c828d0161090b565b96505060806109d08c828d0161090b565b95505060a06109e18c828d01610946565b94505060c06109f28c828d01610946565b93505060e0610a038c828d01610946565b925050610100610a158c828d01610946565b9150509295985092959850929598565b7f4e487b7100000000000000000000000000000000000000000000000000000000600052601160045260246000fd5b6000610a5f826106a3565b9150610a6a836106a3565b9250828202610a78816106a3565b91508282048414831517610a8f57610a8e610a25565b5b5092915050565b7f4e487b7100000000000000000000000000000000000000000000000000000000600052601260045260246000fd5b6000610ad0826106a3565b9150610adb836106a3565b925082610aeb57610aea610a96565b5b828204905092915050565b6000610b01826106a3565b9150610b0c836106a3565b9250828201905080821115610b2457610b23610a25565b5b92915050565b600082825260208201905092915050565b7f5265656e7472616e637947756172643a207265656e7472616e742063616c6c00600082015250565b6000610b71601f83610b2a565b9150610b7c82610b3b565b602082019050919050565b60006020820190508181036000830152610ba081610b64565b905091905056fea2646970667358221220494d0114f1672b9ec25788df13d99d77eb8bca6477fd5eaa197a2321f937155864736f6c63430008140033",
  "linkReferences": {},
  "deployedLinkReferences": {}
}